:100000000C94D2030C94FA030C94FA030C94FA03A4
:100010000C94FA030C94FA030C94FA030C94FA036C
:100020000C94FA030C94FA030C941F060C9491069A
:100030000C94FA030C94FA030C94FA030C94FA034C
:100040000C94FA030C94FA030C94FA030C94FA033C
:100050000C94FA030C94FA030C94FA030C94B71D55
:100060000C94FA030C94FA030C94FA030C94FA031C
:100070000C94FA030C94FA030C94FA030C94FA030C
:100080000C94F9090C94FA030C94FA030C94FA03F7
:100090000C94CF080C94FA030C94FA030C94FA0312
:1000A0000C94FA030C94FA030C94FA03F0F89C8E67
:1000B0008783878E9CF8F00000FEFF030303030391
:1000C000070EFCF80000FEFF0303030303070EFC0A
:1000D000F80000FFFF00000000000000FFFF00002C
:1000E000FEFF8383838383C7EE7C380000F8FC0E19
:1000F00007030303070EFCF800003F7FE0C0808089
:10010000C0E07F3FFFFF01010101010101FFFF008E
:1001100000FFFF0C0C0C0C1C3E77E3C100007FFFBE
:10012000C0C0C0C0C0E0703F1F00001F3F70E0C0F3
:10013000C0C0E0703F1F00007FFFC1C1C1C1C1E36B
:10014000773E1C00001F3F70E0C0C0C0E0703F1F42
:10015000000000000001FFFF01000000D5F08D1439
:10016000A1C881CFD9F1AF20004D6963726F54618E
:100170006E6B2100FA0032005E013200C2016400A1
:10018000F4013200008026026400BC026400B60361
:100190006400520364000080808CB7BDA5ADB6BD7D
:1001A000DBDDDDDEEEEE83060C183FC083166DDB73
:1001B000A700C78F1E3D6A80EFDFBF7EE180D78F2B
:1001C0001E3C6200BB76AD18270083060C183FC0AA
:1001D000F3F9F3F7E7EFF5FAF5F3EFCFE3F0E3E345
:1001E000E7C7E7E3E7E7E7E7A7FFFFC78FFF8E1C57
:1001F0003F5D78E1FCE4C906868DC05841DCDCD95E
:10020000ACAAAAE7F18F0FFF09E9F237170F6801CF
:1002100000030303084542454B4542BBBDBBB7BB8A
:10022000BDFFF8F767F5775F04A79A8373C529D3F5
:100230001E5DE5DFBD81DF98F79BB980995BC78FB5
:100240001F70D7775F70AA9AAEB0AADAAEB0AADAFA
:10025000AEB0D7775F70C78F1F70870CC81264C8A5
:100260000032644E7224C9E03E640E7204C86032EB
:10027000648E7244C9E0870CCE726618008206183C
:1002800030003F9CC99CC0039CC99CC0F39C083CA7
:10029000C0079CC99CC0870CE40F866408203E649C
:1002A00044FF3264F9802264043F326439803204AE
:1002B000A4FF330CF8208264E40F879C0980860435
:1002C00000327CF0321C30327CF0867CF08660326A
:1002D00020320032408660830CC990403E64C8934F
:1002E000000264C81300F264C91300070E1990C01D
:1002F000793C1C09F3F7D7275EB082020E30A28248
:100300008E3083460E30C78F1E30EFDFBF7077BB55
:10031000DDEEFEFFFF7FFFFE7FFFFF7FFEFF7FFF23
:10032000FFFEEEDDBB773930C1C3F818664C1126ED
:100330004C99FE7322490127CC99FE73204129264E
:100340004199FE7024483930CCC3FE73264C080B0B
:10035000000202020100090400000102020000057F
:1003600024001001052401010104240206052406CD
:1003700000010705810310004009040100020A0082
:10038000000007050202400000070583024000004C
:100390000403090412010002EF02014041233680E8
:1003A00000010102030141726475696E6F204C4CBB
:1003B000430041726475696E6F204C656F6E6172A7
:1003C000646F00F8FFF803F3FB8333DF32DFF8DFFD
:1003D000FAD3309332DFF8DFFADFF8D24AD2485E40
:1003E0007A5E7AFFFFFFFFFFE3DD8BFDB3FC8BF44A
:1003F000FBF5FBF93BF93BF47BF1FBD87BADFBD57F
:10040000E59FDBFFFFFFFFFFFFFFFFFFF7FFE3FFBE
:10041000C9F79C87D5035D7B3D52755A15FF7FF662
:10042000DFFFFFFFFFFDFFFDFFF81FFBDFF95FBBF5
:10043000DFB95F1BDB395B5BD3C95189DB9FFFDE13
:10044000FFFDEFF7FFB7FF03FF7BEF7BD728037BB1
:10045000FB7AAB2BFB7BFB7AAB2AF36BE7FFE3E783
:1004600063F9F7FFFFFFFFDFFF8FFF07FFAFFF809D
:100470003FAA9FA00DBFED8EAFAAABABEAFFFCFE7B
:10048000DBEA17FFFFFFFFFFFFF0FFF6F9F2C0EE18
:10049000CAC4DE828A1CDEBBCA8B5A9A7FFF77EF02
:1004A000FFFFDFFFBFF31FE313E2ADE440D46D9C19
:1004B000658EE58EFFDF0FF053CAA9A503D03FFE7E
:1004C0001BFFBFFFFFFFFFFDFFFDEFE8EFF8E7FCBD
:1004D000D3E6C381830083BDC7A9A799C7ACEF9CAE
:1004E0006FF87FFFFFFFBFF01FF7DFF541E7DDE5A6
:1004F00055F7E5F56D35D0BF9A5FD5AE2A5F55B695
:100500006ACFDFFFFFFFEFFF83EF7DEE00EF4DEFE0
:100510004DC07DBF7D40793FFDA1FDA525A925A545
:10052000FDA97CFEFFFE9FFE67F9F9F606F9F9BA10
:1005300065BA652BFD2BFD4BFDE655A655CA7D82A0
:100540007DEFFFFFFFFF87FFB7FFC7FFF7FE17F144
:10055000E3EFFDD002EFFDE805AAA58955AAA4891D
:1005600054FFFFFFFFFFFFFFFF8FEF0FEF17CF9746
:10057000872F86DFC6DFCCDFEA93E4F4EA80D4A2DB
:10058000AADDFFFFFFFFFFD7FFEFFBFFFBFFF9FF38
:10059000F1FF71FF610000AA2A5555AA2A5555B2EC
:1005A0002AFDFFFFFFF87FFB7FFC7FFF7FFF7FFFC0
:1005B0007F7C1E7AAE01402BEA52242AAA52A43A2A
:1005C000AAE7FFFFFFFFFFFFFFC3FF997FCB7FDAA3
:1005D000BFCB71DB6D0000AA2A5555AA2A5555B22A
:1005E0002AE7FFF3FF807FCAFFD4FFBF7F807FE948
:1005F000FFE5FEE9FEE400E8AAA554A8AAA5544C2C
:10060000AABFFF468720E40480209A0B41690A387C
:1006100040468720E4048020EFDFE7FCFFC7E0FED0
:10062000DAE6F5253F692BFFBB5DFF9D9170909940
:10063000696E577E666DD9510D966DBE0E6B686DF5
:100640007ED66B6E9801D99B99EFDFD7EF4BA189CE
:1006500085280032003C0032003C0032003200327B
:100660000000809600320000802C0132005E0132D2
:1006700000900132000080FFDFC7F8FE07E09FAF67
:10068000BBF53D50608381C075055000EFE7F9F878
:100690009E08E0FFFFFFE3FC1FE08201007404E01E
:1006A00000AE5F29F07E03E0EFCFE7FCFF8FE0F7BD
:1006B000F7FD71AE0CA083018020050000D7D7EDB7
:1006C00071AE0CA0DFDFE7FCFF87E0FFFFFFF0FC6F
:1006D00007C0FFFFC060000000C30183F03E03E0DD
:1006E0008E0F21F51EA9E0010204081020408002AF
:1006F0000100200400207AFD7FAFF5FFA02A552AD3
:10070000A554AAA0870380700E0060FFFFFFFFFFC3
:10071000FFE0060300600C006062E1782F05F02026
:100720005ABD57AAF55FA093098530A60520E7E3D7
:10073000F87F0FF060060300600C00E062E1782FA4
:1007400005F0203A5D2FA5F4AFA08B1582B0560AB4
:10075000A0E7E3F87F0FF0604C0432009001320014
:10076000960032000080FFFFFFFAFFFFFF85FFFFCA
:10077000C80BFFFC8036FFF8334FFFCB44EFFEACD5
:10078000DDFFEDDDDEFFCC456EFF911377FFFD96BB
:10079000EA6FCDBB640032004B0032003200320001
:1007A0000080F93011241FBECFEFDAE0DEBFCDBFED
:1007B00011E0A0E0B1E0E4EEF8E602C005900D9291
:1007C000AA34B107D9F728E0AAE4B1E001C01D922C
:1007D000A23FB207E1F713E0C2EDD3E004C02197D6
:1007E000FE010E946534C13DD107C9F70E94011E78
:1007F0000C9470340C9400004091C7015091C801D2
:100800002091C5013091C60142175307B4F490916D
:10081000E8009570E1F39091E80092FD19C0809393
:10082000F1008091C7019091C80101968F739927BB
:10083000892B19F48EEF8093E8008091C701909185
:10084000C80101969093C8018093C70181E0089583
:1008500080E00895DF92EF92FF920F931F93CF9362
:10086000DF93D82E8A017B01E40EF51EEB01CE1535
:10087000DF0571F0D7FE03C0FE01849101C08881BD
:100880000E94FC0321968111F2CF8FEF9FEF01C0F0
:10089000C801DF91CF911F910F91FF90EF90DF90F2
:1008A0000895615030F02091F100FC012083019601
:1008B000F8CF289884E68093D3010895CF92DF92F1
:1008C000EF92FF920F931F93CF93DF936C017A0106
:1008D0008B01C0E0D0E0CE15DF0581F0D8016D912D
:1008E0008D01D601ED91FC910190F081E02DC601C2
:1008F0000995892B11F02196EECF7E01C701DF917A
:10090000CF911F910F91FF90EF90DF90CF900895BE
:10091000CF93DF931F92CDB7DEB76983DC01ED91F2
:10092000FC910280F381E02D41E050E0BE016F5F59
:100930007F4F09950F90DF91CF91089583E08093C9
:10094000E9008091F200882319F08AE38093E8009F
:100950000895FC018485958597FD0BC09FB7F89499
:1009600082E08093E9008091F2009FBF90E00196C1
:1009700008959FB7F89482E08093E9008091F20097
:100980009FBF90E0089585ED8093BC008091BC00EE
:1009900084FDFCCF10929F01089540917B01262F8A
:1009A00030E0240F311D21323105DCF420919F010C
:1009B0002430C9F4FC0180E090E0861758F43091AF
:1009C0007B012191DC01A55ABE4FA30FB11D2C93D1
:1009D0000196F3CF80917B01680F60937B0180E0EB
:1009E000089581E0089582E0089508958FEF9FEFC4
:1009F00008958FEF9FEF089580915A0190E09195AF
:100A0000819591090895CF93DF93CB01EA01642F7B
:100A10000E94CD04CE01DF91CF910895CF93DF9353
:100A20001F92CDB7DEB7698361E0CE0101960E94C7
:100A3000CD0481E090E00F90DF91CF9108950E9466
:100A40006B340F931F93CF93DF931F92CDB7DEB715
:100A500082E0898342E450E06EE473E080E80E9423
:100A60002A040E94AD11DC0112960D911C9113977E
:100A70000115110589F0D801ED91FC910280F381F7
:100A8000E02DBE016F5F7F4FC801099597FD04C03F
:100A9000F80100851185ECCF89810F90DF91CF910E
:100AA0001F910F9108958F929F92AF92BF92CF9214
:100AB000DF92EF92FF920F931F93CF93DF936C011E
:100AC0007B018A0180910B01882309F45CC080912D
:100AD000D401882309F457C080914A0180FF05C0E2
:100AE0008091E00082608093E000E801B12C8AEF01
:100AF000A82E93E0892E2AE3922E209711F4BB2092
:100B0000D9F10E949C1181110AC0AA94AA20D9F19E
:100B100061E070E080E090E00E94C111EECF282FEC
:100B200030E0C217D3070CF48C2F9FB7F894809253
:100B3000E9002091E80025FF1DC0282F30E0C21BEE
:100B4000D30BF701815020F041914093F100FACF8F
:100B5000E20EF31EBB2019F09092E8000AC08091CB
:100B6000E80085FD07C09092E800BB24B39420976D
:100B700009F0B12C9FBFC1CF5D9884E68093CA0174
:100B80001016110644F081E090E0F6019383828311
:100B900080E090E001C0C801DF91CF911F910F91DB
:100BA000FF90EF90DF90CF90BF90AF909F908F908D
:100BB00008950E949C1190E008950F931F93CF9386
:100BC000DF931F92CDB7DEB78C01FC01848595853C
:100BD00097FF0EC0CE0101960E946E11019719F485
:100BE000898190E002C08FEF9FEFF801958784879D
:100BF000F801848595850F90DF91CF911F910F911A
:100C00000895CF93DF931F92CDB7DEB7FC018485A3
:100C1000958597FD05C02FEF3FEF358724870BC0E3
:100C2000CE0101960E946E11019719F4898190E01E
:100C300002C08FEF9FEF0F90DF91CF9108951F9229
:100C40000F920FB60F9211248F939F938091E10022
:100C50009091E100937F9093E10083FF0FC0109289
:100C6000E90091E09093EB001092EC0092E39093F6
:100C7000ED001092D40198E09093F00082FF20C024
:100C800093E09093E9009091F200992319F09AE390
:100C90009093E8009091CA01992339F09091CA018C
:100CA00091509093CA01992389F19091D30199238E
:100CB00039F09091D30191509093D301992341F150
:100CC00084FF10C08091E2008E7E81608093E200FC
:100CD0008091E1008F7E8093E10080914A018E7EB9
:100CE000806111C080FF16C08091E2008E7E80611D
:100CF0008093E2008091E1008E7E8093E1008091FC
:100D00004A018E7E816080934A0104C05D9ACDCFF6
:100D1000289AD6CF9F918F910F900FBE0F901F9062
:100D200018951F920F920FB60F921124CF92DF9257
:100D3000EF92FF920F931F932F933F934F935F93E5
:100D40006F937F938F939F93AF93BF93EF93FF9393
:100D5000CF93DF93CDB7DEB76C97DEBFCDBF1092D8
:100D6000E9008091E80083FFFBC168E0CE01459671
:100D70000E94510482EF8093E8008D8987FF05C0AF
:100D80009091E80090FFFCCF03C09EEF9093E800A5
:100D9000982F907609F0C6C09E894F89588D2F896B
:100DA000F88C91110CC0803829F480914B0180930C
:100DB000F10002C01092F1001092F10045C1913093
:100DC00051F4811141C14130510509F03DC180917B
:100DD0004B018D7F0BC0933061F4811135C14130DF
:100DE000510509F031C180914B01826080934B0124
:100DF0002BC1953049F48091E80080FFFCCF822F11
:100E000080688093E30020C1963009F05EC00B8DAE
:100E10001C8D22E01092E9001092C8011092C701C7
:100E2000F21232C01092C6011092C5010E94210533
:100E300099E0BE016F5F7F4FDB01E92F1D92EA95BC
:100E4000E9F79983FA8291E09E8390EA98879AEF76
:100E500099872091C7013091C801275F3F4F3C839C
:100E60002B838D831092E9001092C8011092C70164
:100E70001093C6010093C50149E050E080E00E9454
:100E80002A040E942105E0C01093C6010093C50109
:100E90000E94AD11DC0112960D911C911397011562
:100EA000110509F4BBC0D801ED91FC910480F581D6
:100EB000E02DBE016B5E7F4FC8010995009709F0D8
:100EC000C7C0F80100851185EACF973009F445C104
:100ED000983021F481E08093F100B6C0993009F098
:100EE000B3C0837009F039C1E2E1F1E081E031E0A3
:100EF00096E32081211109C08EE78093EA001092C9
:100F0000EA008F898093D4019FC08093E9003093D9
:100F1000EB0021912093EC009093ED008F5F8730E0
:100F200041F7EACF8B8D9C8D1092E9001092C80199
:100F30001092C7019093C6018093C501898D8111DC
:100F400053C08E899D89913A49F4813209F005C1D7
:100F500047E050E064E071E080E0BBC0913209F00E
:100F6000FCC0833269F48F89988DA0E0B0E0809353
:100F7000000190930101A0930201B093030164C0AA
:100F8000803269F48091E80082FFFCCF67E084E062
:100F900091E00E9451048BEF8093E80055C08232AB
:100FA00009F052C08F8980930B01EEEFFFE7859126
:100FB00094918B3F9C4D19F0E0E0F8E002C0EEEF19
:100FC000FAE08091040190910501A0910601B09191
:100FD0000701803B9440A105B10509F09EC08091B6
:100FE0000B0180FF79C099C00E94AD11FC01028104
:100FF00013810115110509F4B0C0D801ED91FC91E0
:101000000190F081E02DBE016B5E7F4FC801099514
:1010100081111AC0F80100851185EBCFF1E0FF16B0
:1010200009F44EC0F3E0FF1298C08F89882309F4B9
:101030004AC0823089F440E860E182EB93E00E948C
:10104000C430882309F489C08EEF8093E80088C0FB
:1010500018161906CCF381C0813029F440E86BE002
:1010600086EA93E0ECCF833009F077C00E94AD119F
:10107000DC011296ED90FC9013978E010F5F1F4FCD
:101080006801E114F10479F0D701ED91FC9106803B
:10109000F781E02DB801C7010995080F111DF7016F
:1010A000E084F184EECFD8011C92F601019000207B
:1010B000E9F73197BF016C197D0940E0C601BFCF48
:1010C00064E973E002C060E973E0FB01449150E021
:1010D00080E80E942A04B8CFEE3F2AE0F20751F0E0
:1010E000808191818737A7E79A0721F09093FF0AC3
:1010F0008093FE0A87E797E7918380838091600061
:101100008093C9019BE088E10FB6F894A89580937D
:1011100060000FBE9093600097CF808191818737E8
:10112000974709F091CFA8958091600088618093DE
:1011300060008091C90180936000EE3FBAE0FB0738
:1011400039F08091FE0A9091FF0A918380837CCFD1
:101150001092FF0A1092FE0A77CF81E28093EB0093
:101160006C960FB6F894DEBF0FBECDBFDF91CF9166
:10117000FF91EF91BF91AF919F918F917F916F916F
:101180005F914F913F912F911F910F91FF90EF90A1
:10119000DF90CF900F900FBE0F901F9018951F9269
:1011A0000F920FB60F9211242F933F934F935F939B
:1011B0006F937F938F939F93AF93BF93EF93FF931F
:1011C0008091B900887F803609F49CC068F5883228
:1011D00009F45BC090F4803109F454C038F48823DA
:1011E00009F4F2C0883009F44DC0F2C0883109F426
:1011F0004CC0803209F45DC0EBC0803409F468C093
:1012000048F4803309F455C0883309F0E1C0809375
:101210009E01D4C0803509F44FC0883509F45DC003
:10122000883409F0D5C0D2C0883909F4C3C0A8F405
:10123000883709F467C038F4883609F463C080370A
:1012400009F460C0C5C0883809F4B4C0803909F415
:101250005FC0803809F0BCC05BC0803B09F484C02B
:1012600038F4803A09F466C0883A09F47DC0B0C009
:10127000803C09F4A3C0883C09F4A0C0883B09F471
:1012800086C0A6C08091C40110C09091C301809116
:10129000C201981770F5E091C30181E08E0F809331
:1012A000C301F0E0EE55FE4F80818093BB0085ECDA
:1012B00082C080939E018AC0E091C30181E08E0FBD
:1012C0008093C3018091BB00F0E0EE55FE4F808318
:1012D0009091C3018091C2016AC0E091C30181E095
:1012E0008E0F8093C3018091BB00F0E0EE55FE4F5E
:1012F00080838091A101811169C081E08093A00168
:1013000084EA5DC083E080939F0110929D01CFCF5E
:1013100080919D01803208F04DC0E0919D0181E0F7
:101320008E0F80939D018091BB00F0E0E358FE4F4B
:101330008083BDCF85EC8093BC0010929F0180918B
:101340009D01803230F4E0919D01F0E0E358FE4FC2
:10135000108260919D0170E08DE791E0E0E0F0E0A7
:10136000099510929D0134C084E080939F011092F2
:101370007C0110927B01E0E0F0E0099580917B0117
:10138000811105C081E080937B0110925B01E091A7
:101390007C0181E08E0F80937C01F0E0E55AFE4FE6
:1013A00080818093BB0090917C0180917B01981794
:1013B00008F47DCF85E88093BC000AC085EC80935B
:1013C000BC0010929F0104C010929E010E94C304B1
:1013D000FF91EF91BF91AF919F918F917F916F910D
:1013E0005F914F913F912F910F900FBE0F901F90E3
:1013F00018951F920F920FB60F9211242F933F93BF
:101400004F935F936F937F938F939F93AF93BF930C
:10141000EF93FF938091560190915701A09158014D
:10142000B0915901892B8A2B8B2B49F18091550161
:10143000811104C098B180E4892788B98091560150
:1014400090915701A0915801B091590118161906B1
:101450001A061B06B4F48091560190915701A09191
:101460005801B09159010197A109B1098093560122
:1014700090935701A0935801B093590102C00E9464
:101480000E12FF91EF91BF91AF919F918F917F913C
:101490006F915F914F913F912F910F900FBE0F90E1
:1014A0001F90189580915001E0914E01F0914F01ED
:1014B000882349F0CF01029690934F0180934E010B
:1014C000859194910895CF01029690934F01809356
:1014D0004E018081918108953FB7F8948091CF01AA
:1014E0009091D001A091D101B091D20126B5A89BD5
:1014F00005C02F3F19F00196A11DB11D3FBFBA2FA6
:10150000A92F982F8827820F911DA11DB11DBC0105
:10151000CD0142E0660F771F881F991F4A95D1F7CA
:1015200008952F923F924F925F926F927F928F9287
:101530009F92AF92BF92CF92DF92EF92FF920F9362
:101540001F93CF93DF9300D000D0CDB7DEB780914B
:10155000C608882319F081508093C6088091C60878
:101560008F3108F0DCC3882321F080916B0780FD68
:10157000D6C31091D308212F012E000C330B285411
:10158000374F3A8329836091BC087091BD088091E0
:10159000BE089091BF080E94D032F62E6091B80824
:1015A0007091B9088091BA089091BB080E94D0321E
:1015B000E12CE981FA810189212F4F2D8091D708F3
:1015C0000E9406188091D30881119EC00091D7080F
:1015D000002309F473C3F091C908F98320E030E0D7
:1015E00040E050E46091BC087091BD088091BE0855
:1015F0009091BF080E9457326B017C0129812230F3
:1016000020F0412C512C320106C0412C512C60E8B5
:10161000662E6FE3762E8090B8089090B908A0905F
:10162000BA08B090BB0889810E948913182FA301C2
:101630009201C701B6010E9458320E94D032862F13
:1016400090E09A838983612F70E080E090E00E94AF
:101650000133A50194010E9458324B015C01602FB7
:10166000002E000C770B880B990B0E9401339B0115
:10167000AC01C501B4010E9458320E94D032662EDE
:10168000712CC02E000FDD0891E0C91AD108C601E7
:10169000880F991FC80ED91E812C912CA12C34E0E3
:1016A000E32EF12C03E010E028E130E04FE156E0BA
:1016B00069817A81C3010E944417C090D7080C2C1D
:1016C000000CDD08E1E0CE1AD108C601880F991F91
:1016D000C80ED91E69817A816D5F7F4F52E0A52EB9
:1016E00028E130E04FE156E0C3010E9444178091A9
:1016F0006B0780FDE3C28091D708883014F48F5FB8
:10170000CFC11092D708DAC2813009F06EC0809143
:10171000C4088F3F09F4D2C21091CA086FEF70E07D
:10172000681B71099B0196E0359527959A95E1F71D
:101730003A832983812F0E947413C82E812F0E941F
:101740008913182F6091BC087091BD088091BE0864
:101750009091BF080E94C9324B015C016091B808AA
:101760007091B9088091BA089091BB080E94C93263
:10177000DC01CB0101E024E0412FB4010E94D0192B
:10178000D12C84E090E07C01E981FA81EE1AFF0A15
:10179000012F10E0BF01FF0F880B990B0E9401334E
:1017A0002091BC083091BD084091BE085091BF08FF
:1017B0000E9458320E94C9322B013C016091B80846
:1017C0007091B9088091BA089091BB080E94C93203
:1017D000DC01CB01812C912CA12C23E330E043E0F0
:1017E00056E0B2010E94441769C2833009F05BC120
:1017F0008091D70880FF22C06091BC087091BD081D
:101800008091BE089091BF080E94C9326B017C0193
:1018100020E030E040E850E46091B8087091B908E9
:101820008091BA089091BB080E9458320E94C93238
:1018300020E0A6018AED98E00E9403138091D7086A
:1018400081FF28C020E030E040E85FE36091BC0801
:101850007091BD088091BE089091BF080E945732D8
:101860000E94C9326B017C0120E030E040E450E48A
:101870006091B8087091B9088091BA089091BB083E
:101880000E9458320E94C93220E0A6018AED98E0F9
:101890000E9403138091D70882FF28C020E030E027
:1018A00040E050E46091BC087091BD088091BE0892
:1018B0009091BF080E9457320E94C9326B017C018F
:1018C00020E030E040E85FE36091B8087091B9082B
:1018D0008091BA089091BB080E9458320E94C93288
:1018E00020E0A6018AED98E00E9403138091D708BA
:1018F00083FF28C020E030E040E85FE36091BC084F
:101900007091BD088091BE089091BF080E94573227
:101910000E94C9326B017C0120E030E040E85FE3C7
:101920006091B8087091B9088091BA089091BB088D
:101930000E9457320E94C93220E0A6018AED98E049
:101940000E9403138091D70884FF22C06091BC08D5
:101950007091BD088091BE089091BF080E94C93265
:101960006B017C0120E030E040E050E46091B80879
:101970007091B9088091BA089091BB080E945732C3
:101980000E94C93220E0A6018AED98E00E9403136C
:101990008091D70885FF28C020E030E040E85FE371
:1019A0006091BC087091BD088091BE089091BF08FD
:1019B0000E9458320E94C9326B017C0120E030E065
:1019C00040E450E46091B8087091B9088091BA0879
:1019D0009091BB080E9457320E94C93220E0A601B4
:1019E0008AED98E00E9403138091D70886FF28C0F3
:1019F00020E030E040E450E46091BC087091BD0804
:101A00008091BE089091BF080E9458320E94C9324E
:101A10006B017C0120E030E040E850E46091B808C0
:101A20007091B9088091BA089091BB080E94573212
:101A30000E94C93220E0A6018AED98E00E940313BB
:101A40008091D70887FF28C020E030E040EC50E4C8
:101A50006091BC087091BD088091BE089091BF084C
:101A60000E9458320E94C9326B017C0120E030E0B4
:101A700040EA50E46091B8087091B9088091BA08C2
:101A80009091BB080E9457320E94C93220E0A60103
:101A90008AED98E00E9403138091D708880F990B74
:101AA0008093D7080BC1823009F008C12091C40887
:101AB0002F3F09F403C1F0916B07F1708FEF90E0B5
:101AC000821B910962E370E00E945134F60FF983A2
:101AD000C090B808D090B908E090BA08F090BB0860
:101AE0008091CB080E9489133981232F30E03C83F9
:101AF0002B83682F70E080E090E00E940133A70103
:101B000096010E94583220E030E040E85FE30E94F6
:101B100058326B017C01EB81FC81BF01FF0F880B08
:101B2000990B0E9401339B01AC01C701B6010E94D1
:101B300058320E94D032062F20E030E040E85FE3C8
:101B40006091BC087091BD088091BE089091BF085B
:101B50000E9458320E94C9322B013C015B0110E007
:101B600081E090E06C012B813C81C21AD30A1901FB
:101B7000319421943108220C331CA901440D551DC8
:101B800020E0B8018AED98E00E940313A2018B8146
:101B90009C81481B590B20E0B8018AED98E00E9417
:101BA00003136B817C81600F711F20E0A2018AED1D
:101BB00098E00E940313B801EB81FC816E1B7F0B40
:101BC00020E0A2018AED98E00E940313E12CF12CA1
:101BD00021E030E03A8329838B819C81E816F90665
:101BE0000CF06CC0D7FC08C001979C838B8392E0FB
:101BF000290E311CC20CD31CEFEFEE1AFE0A29810C
:101C00003A812E5F3F4F3A832983C20ED31E37019C
:101C1000600E711E20E08B809C808A0C9B1CA401AE
:101C2000B3018AED98E00E94031328014E185F0863
:101C300020E0A401B2018AED98E00E94031320E0A5
:101C400045018B819C81881A990AA401B3018AED10
:101C500098E00E94031320E0A401B2018AED98E00D
:101C60000E94031345018E0C9F1C20E0A4016B8091
:101C70007C80600E711EB3018AED98E00E94031310
:101C800020E0A4012801EB81FC814E1A5F0AB20119
:101C90008AED98E00E94031345018E189F0820E00A
:101CA000A401B3018AED98E00E94031320E0A4018F
:101CB000B2018AED98E00E9403138ECF6091BC08B8
:101CC0007091BD088091BE089091BF080E94D032EB
:101CD00069836091B8087091B9088091BA089091B1
:101CE000BB080E94D032862F4091C70869810F90AF
:101CF0000F900F900F90DF91CF911F910F91FF9058
:101D0000EF90DF90CF90BF90AF909F908F907F909B
:101D10006F905F904F903F902F900C94DC1C0F9031
:101D20000F900F900F90DF91CF911F910F91FF9027
:101D3000EF90DF90CF90BF90AF909F908F907F906B
:101D40006F905F904F903F902F900895E091D6084C
:101D5000E53028F4F0E0E854F74F818907C0E5301A
:101D600019F48091C80802C08091C7088F5F8093E2
:101D7000D408E091D408E53030F4F0E0E854F74FAF
:101D800085898093D508089580E090E0A0E2B1E4D1
:101D90008093B8089093B908A093BA08B093BB0891
:101DA00080E090E0A0EFB1E48093BC089093BD0880
:101DB000A093BE08B093BF0882E08093C30880E17F
:101DC00097E29093C2088093C1081092C5081092C0
:101DD000C4081092C0088EE18093C608109255077F
:101DE0001092C7081092C8081092C9081092CA0829
:101DF0001092CB081092CC081092CD08A1ECB7E05D
:101E0000FD0180E090E02481211114C026E0289F8C
:101E1000F001299FF00D1124EF53F84F81E08483E6
:101E200084E680838EE1818382E08383128280E076
:101E300090E00BC0019636968830910521F7F7CFD8
:101E40000196169688309105B1F014962C9114974E
:101E50002111F6CF26E0289FF001299FF00D1124D3
:101E6000EF53F84F81E0848384E6808382E38183AB
:101E700085E0838312820C94A60EAF92BF92CF921C
:101E8000DF92EF92FF920F931F93CF93DF93142F64
:101E9000C62FD0E0C82ED12CEE24E39401E026E03A
:101EA00044E1BE01C6010E942D1A219676018FEFF2
:101EB000E81AF80A00E024E042E1BE01C7010E94EE
:101EC000D01982E0C80ED11C560104E021E0AE0119
:101ED000B5018AED98E00E940313015084E0A80E3A
:101EE000B11C0111F3CF01E024E0412FBE01C70175
:101EF0000E94D019133040F04EEF410F00E021E076
:101F0000BE01C6010E94D019DF91CF911F910F91A0
:101F1000FF90EF90DF90CF90BF90AF9008950F9318
:101F20001F93CF93DF93E5EDF5E090E0A82FB0E0AD
:101F3000ED01C40FD11D70E08B01020F111D8581D1
:101F40008823C1F0208130E02C173D079CF44181AB
:101F500050E04017510774F48281823011F083E021
:101F600001C084E1280F311DA217B3071CF44617E6
:101F7000570734F49F5F3696903409F78FEF01C00E
:101F8000892FDF91CF911F910F9108952F923F924A
:101F90004F925F926F927F928F929F92AF92BF9279
:101FA000CF92DF92EF92FF920F931F93CF93DF9325
:101FB00000D000D0CDB7DEB7809161089091620863
:101FC0009C0164E0369527956A95E1F78F7019F0CA
:101FD00059E0B52E02C048E0B42E90E06624772484
:101FE000681A790A1C821B82C90199279A838983FE
:101FF00093EA292E94E0392E23E8422E25E0522E32
:1020000089819A812B813C81820F931F69E370E063
:102010000E94513410925E08811105C01092600830
:1020200010925F0805C1813009F497C0823009F42D
:10203000A9C0833019F483EA95E0ECC0843009F438
:10204000A6C0853019F483E695E01FC0863031F3D1
:10205000873019F483E495E0DDC0883009F48AC044
:10206000893019F483E095E0D5C08A3019F483E60D
:1020700095E0D0C08B3029F45092600840925F0800
:10208000D4C08C3039F483EA95E090936008809353
:102090005F08CBC08D3019F483EE94E0BBC08E3066
:1020A00019F483EE95E0F1CF8F3019F423EC34E08E
:1020B00087C0803109F4B2CF813129F430926008B1
:1020C00020925F08B5C0823109F4A2C0833119F4AF
:1020D00023E634E075C0843119F483E894E0D5CF69
:1020E000853109F490C0863119F483E294E092C0FE
:1020F000873119F423E034E063C0883119F483E6B2
:1021000094E0C3CF893109F48AC08A3109F467C0E9
:102110008B3109F483CF8C3119F483EC94E0B5CF83
:102120008D3109F4A4CF8E3109F4A6CF8F3109F493
:10213000B8CF803219F423EE33E042C0813219F473
:1021400083EC93E0A2CF823219F483E095E09DCF37
:10215000833209F463CF843219F483EE95E05AC0D8
:10216000853219F483EE94E090CF863209F499CF4A
:10217000873219F483E295E04DC0883209F477CFB5
:10218000893219F483EC95E080CF8A3229F4509299
:10219000600840925F084CC08B3209F482CF8C32C9
:1021A00019F423EE33E03DC08D3209F437CF8E327F
:1021B00019F483E495E069CF8F3239F423EC33E0EE
:1021C0003093600820935F0833C0803319F483ECA8
:1021D00094E020C0813309F421CF823329F4309276
:1021E000600820925F0821C0833319F423E634E0AD
:1021F00018C0843309F412CF853319F483E294E0D4
:1022000044CF863319F423E434E00BC0873339F428
:1022100083E894E09093600880935F0809C023E00E
:1022200034E03093600820935F0881E080935E087B
:1022300040915F08509160084115510591F0812C43
:10224000912CA0905E08C12CD12C80E1E82EF12CBD
:1022500000E110E020E130E060E070E0C3010E94A6
:1022600044178B819C8101969C838B8390E1690E3E
:10227000711C8B1508F4C4CE0F900F900F900F9027
:10228000DF91CF911F910F91FF90EF90DF90CF9052
:10229000BF90AF909F908F907F906F905F904F9086
:1022A0003F902F900895E5EDF1E081118FEF00242C
:1022B00081938193819381930394D1F70895E5ED00
:1022C000F1E0A0E0B8E000800EBC8111012C119774
:1022D000A0FDFDCF0192B9F70DB408952091D4016E
:1022E000211103C08FEF9FEF08955FB7F89422E0AC
:1022F0002093E9002091F20030E01216130614F446
:1023000021E030E0422FFC0184E6415038F028986B
:102310008093D3019091F1009193F7CF211531056E
:1023200021F08091F200882319F05FBFC901089560
:102330008BE68093E800F9CF2FB7F89483E0809381
:10234000E9009091E800892F807295FF04C0909178
:10235000F20080E4891B2FBF089580915A078111F4
:102360000DC082E08093560784E080935707109257
:1023700059071092580781E080935A0786E597E045
:1023800008958F929F92AF92BF92CF92DF92EF9279
:10239000FF926B017C010E946C0A4B015C01C1142D
:1023A000D104E104F104F1F00E946C0ADC01CB01DC
:1023B00088199909AA09BB09883E9340A105B1056E
:1023C00070F321E0C21AD108E108F10888EE880E06
:1023D00083E0981EA11CB11CC114D104E104F104D6
:1023E00019F7DDCFFF90EF90DF90CF90BF90AF90C7
:1023F0009F908F9008952FB7F8946091CB017091C2
:10240000CC018091CD019091CE012FBF0895809194
:1024100051010895089580E090E00895CF92DF92F1
:10242000EF92FF920F931F93CF93DF930E94520A74
:10243000811520E8920759F4809171008D7F809377
:102440007100109291004698109262076BC021E0D3
:1024500020936207813020E8920751F480914C016B
:1024600090914D0190934F0180934E010E94520A2A
:10247000EC01DF77209769F4469881E0809355015D
:102480003FE9C32E3FE0D32EE12CF12CCAEFD0E080
:1024900014C08E0120E030E060E472E48FE090E050
:1024A000A90198010E94F43169017A0181E0C81AFA
:1024B000D108E108F10810925501E0914F08F09120
:1024C00050080995811103C081E0809355010E9455
:1024D000520A009771F09C01DE010E944832DC0133
:1024E000CB0129E0B595A795979587952A95D1F7C2
:1024F00003C08FEF9FEFDC01109290002AE0209341
:102500009100D0929900C0929800809356019093C8
:102510005701A0935801B0935901809171008260D6
:1025200080937100DF91CF911F910F91FF90EF90F9
:10253000DF90CF9008959C01E1E7F0E090819D7FCE
:10254000908381E08093500130934F0120934E019E
:1025500030934D0120934C010C940E122D9A089546
:10256000BC0180E090E00C94C1118FB18095807F18
:10257000669B88601C9B846008953E9A3F9A81E028
:10258000809351010895FC01E40FF11DAF011E1667
:102590001F06C4F580389105ACF597FF02C080E0B6
:1025A00090E04138510514F040E850E0481BFB0131
:1025B00077FD379633E0F595E7953A95E1F7F6958F
:1025C000FE2FEE27F795E795E80FF91FEB52FE4F28
:1025D0006770772781E090E001C0880F6A95EAF77D
:1025E000382F222341F0213069F4415058F0808186
:1025F000832B8193FACF8095415020F090819823CE
:102600009193FACF089560387105D0F440345105A4
:10261000B8F4E7EEF6E080E1849FD001A0781124C1
:10262000A60F4770E40FF11D8491AB52BE4F2223D9
:1026300019F06C91862B03C080956C9186238C9346
:102640000895AF92BF92CF92DF92EF92FF920F93D5
:102650001F93CF93DF93142FC22FC62E660FDD0872
:10266000A82E880FBB08E12C03E0B601C5010E942B
:102670002D1A2EEF2C0F4EEF410FB6016F5F7F4FDB
:10268000EE24E39402E0C50101960E942D1AC45085
:10269000750183E0E80EF11C4AEF410FB6016E5F51
:1026A0007F4F00E02C2FC7010E94D019D0E0239764
:1026B00083E0C80ED11C14509E0141E0B601C50153
:1026C000810F911D0E94F2199E0142E0B601C701DF
:1026D000DF91CF911F910F91FF90EF90DF90CF90FE
:1026E000BF90AF900C94F219882349F0813049F0E3
:1026F000823049F0833049F0843049F0089580E019
:10270000089587E0089580E108958BE1089586E2B9
:102710000895882349F0813049F0823049F08330B0
:1027200049F0843049F0089586E0089588E00895DE
:102730008AE008958BE008958DE00895882349F09C
:10274000813049F09EEF980F923038F0843039F0A4
:10275000089586E0089588E008958AE008958CE061
:1027600008950F931F93CF93C82F0E94FB110091E0
:10277000640710916507209166073091670760171D
:10278000710782079307E0F08C2FCC0F990B079607
:1027900067E070E00E9451348093D6080E94A60E34
:1027A0000E94FB11DC01CB0188539F4FAF4FBF4FFD
:1027B0008093640790936507A0936607B0936707BB
:1027C000CF911F910F9108950F93FC018481958102
:1027D00068E775E00E943D3441E0460F618170E09A
:1027E00088E090E0841B9109308100E021E0830FB4
:1027F000911D0E94D0190F910895CF93DF93EC01A2
:102800001D821C828AEF8B838A81863051F4698114
:10281000625088810E94F21A69816150888142E089
:1028200018C0853089F4888140E0698182500E9417
:102830003A1B888141E069818E5F0E943A1B698161
:10284000645042E0888106C0843041F4888142E0CF
:1028500069818C5FDF91CF910C943A1BDF91CF910E
:102860000895EF92FF920F931F93CF93DF93C82F9A
:10287000E62E142F60916B0770916C0780916D07A5
:1028800090916E0723E030E040E050E00E94263255
:10289000672B682B692B21F5F12CD0E0A7014F5F46
:1028A0005F4F20E0BE018AED98E00E940313A7016C
:1028B0004150510920E0BE018AED98E00E940313C7
:1028C0002297812F90E09C01220F331F820F931FCC
:1028D00000E021E042E0B7018C0F9D1F0E94D0195B
:1028E000DF91CF911F910F91FF90EF9008954F923C
:1028F0005F926F927F928F929F92AF92BF92CF9290
:10290000DF92EF92FF920F931F93CF93DF9360912B
:10291000C80870E080E090E00E94FF322DEC3CECB3
:102920004CEC5DE30E94B63320E030E040E85FE32A
:102930000E9458326B017C018091D308813009F0EC
:1029400053C08091C408893C08F44EC02DEC3CEC87
:102950004CE45EE3C701B6010E9458326B017C0172
:102960000E94B51286FF40C020E030E040E85FE3FF
:102970006091BC087091BD088091BE089091BF081D
:102980000E9458320E94D032C62F20E030E040E84A
:102990005FE36091B8087091B9088091BA0890918E
:1029A000BB080E9458324B015C0180916B079091EB
:1029B0006C07A0916D07B0916E0781709927AA27C7
:1029C000BB27BC01CD0121E062270E9401339B019E
:1029D000AC01C501B4010E9457320E94D032862F4B
:1029E00040E06C2F0E9431148091D308843051F460
:1029F0002AE939E949E95EE3C701B6010E94573285
:102A00006B017C010E94B51284FF14C0A7019601DE
:102A10006091BC087091BD088091BE089091BF087C
:102A20000E9458326093BC087093BD088093BE0822
:102A30009093BF080E94B51287FF14C0A7019601AA
:102A40006091BC087091BD088091BE089091BF084C
:102A50000E9457326093BC087093BD088093BE08F3
:102A60009093BF080E94B51286FF14C0A70196017B
:102A70006091B8087091B9088091BA089091BB082C
:102A80000E9458326093B8087093B9088093BA08CE
:102A90009093BB080E94B51285FF14C0A701960150
:102AA0006091B8087091B9088091BA089091BB08FC
:102AB0000E9457326093B8087093B9088093BA089F
:102AC0009093BB0820E030E0A9016091B8087091B4
:102AD000B9088091BA089091BB080E94C43287FF60
:102AE00008C01092B8081092B9081092BA08109253
:102AF000BB0820E030E042EF52E46091B8087091EA
:102B0000B9088091BA089091BB080E94B133181699
:102B100064F480E090E0A2EFB2E48093B808909370
:102B2000B908A093BA08B093BB0820E030E040E4B5
:102B300051E46091BC087091BD088091BE089091ED
:102B4000BF080E94C43287FF0CC080E090E0A0E480
:102B5000B1E48093BC089093BD08A093BE08B093E5
:102B6000BF0820E030E040E652E46091BC0870917C
:102B7000BD088091BE089091BF080E94B13318161D
:102B800064F480E090E0A0E6B2E48093BC08909307
:102B9000BD08A093BE08B093BF080E94B51282FF83
:102BA00018C00E94B51283FF14C08091C508882305
:102BB00081F0880F982F990F990F890F80935507EF
:102BC0009091D308913019F4865F80935507109245
:102BD000C5088091D308823009F070C00E94B512F8
:102BE0001091C40883FF0AC08091CB088B5F18172F
:102BF00008F41AC1181B1093C40816C11F3F09F42A
:102C000013C189E696E00E949B12E091D3080E2E34
:102C1000000CFF0BE854F74F81890E948913E5ED02
:102C2000F5E020E030E0958191113DC08090BC0836
:102C30009090BD08A090BE08B090BF08C090B808A2
:102C4000D090B908E090BA08F090BB0896E0929F47
:102C5000E001939FD00D1124CB52DA4F01E00D8398
:102C6000682F70E080E090E00E940133A701960198
:102C70000E9458320E94D032688320E030E040E069
:102C800050E4C501B4010E9458320E94D0326983D9
:102C900082E08A838FEF90E0811B9109959587955B
:102CA0008B830C8307C02F5F3F4F3696203431054E
:102CB00009F0B9CF8FEF8093C408B6C00E94B51257
:102CC00083FFB2C08091D308811112C08091C408E3
:102CD000803A08F4A9C084E997E00E949B12809191
:102CE000C408805A8093C40881E08093D7084DC0FF
:102CF000813061F48091C4088F3F09F095C084E968
:102D000097E00E949B121092C4083FC0833069F57F
:102D10008091D708837009F087C0F090C4080E94A2
:102D2000CE314091C40820E931E0241B310953E041
:102D3000359527955A95E1F72C5E421708F474C033
:102D4000F694F694F69468E070E00E945134F80E20
:102D5000421B4093C40883E696E00E949B12809138
:102D6000D70881608093D70811C0843071F48091B6
:102D7000C408843108F458C081E596E00E949B1293
:102D80008091C40884518093C408F12C1091D30819
:102D9000E12F012E000CFF0BE854F74F81890E94B0
:102DA0008913E5EDF5E020E030E09581911136C022
:102DB0004090BC085090BD086090BE087090BF085D
:102DC0008090B8089090B908A090BA08B090BB085D
:102DD00096E0929FE001939FD00D1124CB52DA4FE1
:102DE00001E00D83682F70E080E090E00E940133E5
:102DF000A50194010E9458320E94D032688320E0DD
:102E000030E040E050E4C301B2010E9458320E9419
:102E1000D03269831A83FB820C8306C02F5F3F4F39
:102E200036962034310509F6DF91CF911F910F912D
:102E3000FF90EF90DF90CF90BF90AF909F908F90DA
:102E40007F906F905F904F900895EF920F93342F83
:102E5000E22E01E0423008F400E0E02FF0E0AF01A4
:102E60004F5F5F4F242F220F432F440F70E06E5FA0
:102E70007F4F6E1B7F0B90E00496831B91090E948D
:102E80002D1A0F91EF9008952F923F924F925F92DB
:102E90006F927F928F929F92AF92BF92CF92DF926A
:102EA000EF92FF920F931F93CF93DF93CDB7DEB7CF
:102EB00061970FB6F894DEBF0FBECDBFF801EC0DE1
:102EC000FD1DFA83E983EC15FD050CF486C0F901BC
:102ED0003796F7FD3796898AAA2D16014701188B78
:102EE0000F875E874D875B019F0143E035952795EE
:102EF0004A95E1F73C832B83C12CD12CE12CF12C9A
:102F00003EEF3A0F3D839B0121503109A901480D45
:102F1000591D5F834E83FC013197F987E887AD7FA8
:102F2000AA879C01221933093C872B87E814F904EE
:102F30000CF053C03D81323028F44E805F804E1833
:102F40005F0803C025014E0C5F1C688479844F859F
:102F50005889640E751E810189819A8108171907A5
:102F6000A1F1F80117FD379683E0F595E7958A956D
:102F7000E1F7EC0DFD1D2D853E85E20FF31F8491D9
:102F800098012770332740E850E002C055954795D7
:102F90002A95E2F7E82FF0E0E423F523EF2B79F40C
:102FA0005A85513011F4B30104C06B857C85600FE4
:102FB000711F2989A2018AED98E00E9403130F5F17
:102FC0001F4F81E0681A7108C7CF9FEFE91AF90A0D
:102FD000EB81FC81CE0EDF1EA9CF61960FB6F8946F
:102FE000DEBF0FBECDBFDF91CF911F910F91FF903C
:102FF000EF90DF90CF90BF90AF909F908F907F9099
:103000006F905F904F903F902F9008958F929F9276
:10301000AF92CF92DF92EF92FF920F931F93CF93D5
:10302000DF93D62F142FC22F8150823008F4D15055
:10303000802F0E947413C82E802F0E948913CC23E6
:1030400049F0C13051F0C23059F0C33061F047E768
:1030500056E00BC04BEC56E008C043E056E005C01C
:103060004FEA56E002C043E956E08E2C912CD12C59
:1030700090E0612F70E0A12C24E0E22EF12C8C0175
:1030800023E330E08D2F90E00E944417DF91CF9131
:103090001F910F91FF90EF90DF90CF90AF909F9096
:1030A0008F9008958F929F92AF92CF92DF92EF927E
:1030B000FF920F931F93FC019381937088E0989F78
:1030C00060011124818170E0680F711D8081812C65
:1030D000912CA12C92E0E92EF12C08E010E020E2E6
:1030E00030E049E456E090E00E9444171F910F91B0
:1030F000FF90EF90DF90CF90AF909F908F900895CA
:103100002F923F924F925F926F927F928F929F92F7
:10311000AF92BF92CF92DF92EF92FF920F931F93E5
:10312000CF93DF934A3051056CF04436510564F07B
:10313000483E93E0590754F0403197E2590744F074
:10314000C5E007C0C1E005C0C2E003C0C3E001C0E4
:10315000C4E0DC2F94E0C99FD00D1124D550D80FC6
:10316000B12C3AE0432E512C662E660F7708CA0127
:10317000B2010E9451341B016C01DD24CC0CDD1C1A
:10318000CC0CDD1C88248394912CA12C26E0E22E0B
:10319000F12C04E010E028E230E04BE256E0B3010D
:1031A0008D2F0D2E000C990B0E944417A101D550B4
:1031B000B394CB11DCCF8C2FDF91CF911F910F9166
:1031C000FF90EF90DF90CF90BF90AF909F908F9047
:1031D0007F906F905F904F903F902F900895DF9277
:1031E000EF92FF920F931F93CF93DF937C01D22E28
:1031F0008B01040F111DEB0177FF02C0C0E0D0E08E
:10320000C8010134110514F080E490E0C817D90713
:103210004CF42D2DAE01B7018AED98E00E94031306
:103220002196EECFDF91CF911F910F91FF90EF90FC
:10323000DF9008953F924F925F926F927F928F92AC
:103240009F92AF92BF92CF92DF92EF92FF920F9335
:103250001F93CF93DF936C015B01C42FD0E081E01B
:1032600090E04C018C1A9D0A662477246C1A7D0A22
:10327000660C771CE12CF12C822F8470582E822F43
:103280008270482E822F8870382E122F1170EC1603
:10329000FD060CF073C097FC06C0219782E0680E13
:1032A000711C860C971C8FEFE81AF80AC701880F6B
:1032B000991F0196880E991E5520B1F0202FAE015E
:1032C0004A0D5B1DB6016E0D7F1D8AED98E00E94D0
:1032D0000313202FA5014E0D5F1DBE016C0D7D1D3A
:1032E0008AED98E00E9403134420B1F0202FA5013D
:1032F0004C1B5D0BB6016E0D7F1D8AED98E00E94A0
:103300000313202FA5014E195F09BE016C0D7D1D11
:103310008AED98E00E9403133320B1F0202FA5011D
:103320004E0D5F1DB6016C1B7D0B8AED98E00E946F
:103330000313202FAE014A0D5B1DB6016E197F09E4
:103340008AED98E00E940313112309F4A0CF202FE7
:10335000A5014E195F09B6016C1B7D0B8AED98E043
:103360000E940313202FA5014C1B5D0BB6016E19A3
:103370007F098AED98E00E94031389CFDF91CF91F6
:103380001F910F91FF90EF90DF90CF90BF90AF9083
:103390009F908F907F906F905F904F903F90089597
:1033A000CF92DF92EF92FF920F931F93CF93DF9311
:1033B0007B01122FEC016C01C40ED11CCC15DD0574
:1033C00044F4202F412FB701CE010E94EF1821961F
:1033D000F5CFDF91CF911F910F91FF90EF90DF908C
:1033E000CF900895EF92FF920F931F93CF93DF93A7
:1033F0007C01EB01042F122F40FF0FC020E041E0C1
:10340000410F01960E94EF1820E043E0410FBE01FA
:1034100061507109C7010E94EF1801FF17C041E018
:10342000410F20E0BE01C70101970E94EF1843E061
:10343000410FBE016150710920E0C701DF91CF91BA
:103440001F910F91FF90EF900C94EF18DF91CF91A7
:103450001F910F91FF90EF9008954F925F926F929E
:103460007F928F929F92AF92BF92CF92DF92EF9214
:10347000FF920F931F93CF93DF93EC016B01542EB8
:10348000F22E102F000F442E401A812E912C540141
:10349000A80EB91E6034710528F42E2D442DC501E7
:1034A0000E94C31236016F0C711CB3016150710987
:1034B0006034710528F42E2D442DC5010E94C312DD
:1034C000F01AC80CD91C2E2D4F2DB601CE010E942A
:1034D000EF18C50DD11D2E2D4F2DB601CE01019730
:1034E0000E94EF180E2D21E0412FB601C5010E9468
:1034F0001A19C819D909219722E0412FB601CE0126
:103500000E941A196818790881E0681A710824E085
:10351000412FB301CE010E941A1928E0412FB301B7
:10352000C5010E941A19DF91CF911F910F91FF9051
:10353000EF90DF90CF90BF90AF909F908F907F9053
:103540006F905F904F9008959F92AF92BF92CF92ED
:10355000DF92EF92FF920F931F93CF93DF93C82FC9
:10356000D62EC22E082F10E00C5F1F4F0138110518
:103570006CF5E62EF12CE40EF11C81E4E816F10462
:103580002CF5AC2EB12CA016B10604F5DD2D8C2F38
:103590008170982E4D2F50E04E155F05ACF4C7FD9D
:1035A00011C0D03478F48D2F8170992019F08111D9
:1035B00003C008C0811106C02C2DB5018AED98E02A
:1035C0000E940313DF5FE6CFCF5FDBCFDF91CF91A8
:1035D0001F910F91FF90EF90DF90CF90BF90AF9031
:1035E0009F900895CF93DF93C82FD62F0E94CE319E
:1035F00064E670E00E9451348D33C8F5823070F07B
:10360000853070F0893070F08B3070F08B3071F055
:10361000813170F0843170F081E00DC080E00BC02A
:1036200083E009C085E007C086E005C087E003C0ED
:1036300084E001C082E0E1ECF7E020E030E094813A
:1036400091110FC096E0929FF001939FF00D11240D
:10365000EF53F84F91E09483C083D1838383128228
:1036600006C02F5F3F4F36962830310541F7DF9176
:10367000CF910895FF920F931F93CF93DF93E1E7CC
:10368000F7E0C0E0D0E09481911120C0142FF62E15
:10369000082F85E08C9FF0018D9FF00D1124EF58CD
:1036A000F84F81E08483423021F484E997E00E945E
:1036B0009B1285E08C9FF0018D9FF00D1124EF5837
:1036C000F84F0083F1821283138205C0219635964C
:1036D000C031D105C1F6DF91CF911F910F91FF90BD
:1036E00008954F925F926F927F928F929F92AF92C6
:1036F000CF92DF92EF92FF920F931F93CF93DF93BE
:10370000C1E7D7E035E0432E512C612C712C8C8120
:10371000882309F492C02A81223008F59B81888190
:10372000392F330F211102C0831B01C0830F31E0F9
:10373000A22EA32624E0920260011124698170E088
:1037400062507109812C912C23E0E22EF12C04E0CF
:1037500010E020E130E04EE857E090E02DC022304C
:1037600069F58B8194E0890260011124698170E020
:10377000625071098881812C912CAA24A3949AE02B
:10378000E92EF12C04E010E020E230E046E657E0BC
:1037900090E00E9444178B8124E082026001112492
:1037A000698170E062507109888190E0A12C20E26B
:1037B00030E046E657E003970E94441780916F0778
:1037C00080FD3BC0C0906B07D0906C07E0906D0708
:1037D000F0906E07C701B60123E030E040E050E012
:1037E0000E942632611571058105910539F42091F9
:1037F0000C01211103C02881215028832A81223005
:1038000050F4672B682B692BC1F48B818F5F8B83FE
:10381000843099F411C0223081F4C701B601A301AC
:1038200092010E942632672B682B692B31F48B8121
:103830008F5F8B83883009F41C82259687E0C13C1A
:10384000D80709F064CFDF91CF911F910F91FF90BE
:10385000EF90DF90CF90AF909F908F907F906F9080
:103860005F904F9008951F93882309F4A3C090910F
:10387000D908992319F01092D9089CC0182F80916B
:10388000D308823069F40E94B51285FF09C0809187
:10389000C408843628F4880F885D8093C4088AC0E1
:1038A00088E597E00E949B128091D308882319F045
:1038B00020E030E002C023E030E08091C708280F0C
:1038C000311D220F220F220F8091690790916A0704
:1038D000880F892F881F990B9195281B34E6139F19
:1038E000C0011124210390011124AC01421B530B90
:1038F0008091C1089091C2084817590718F4841B99
:10390000950B54C06091BC087091BD088091BE08B1
:103910009091BF080E94D032162F20E030E040E89E
:1039200050E46091B8087091B9088091BA089091FC
:10393000BB080E9458320E94D032862F42E0612F8D
:103940000E943A1B8091C3088230B0F0815080936E
:10395000C3084091C70828EE33E0429FC001439F4F
:10396000900D1124805F984D9093C2088093C108F8
:103970008CE38093C6081EC081E0809368070E9494
:10398000FB11DC01CB0188519C4FAF4FBF4F80939F
:10399000640790936507A0936607B093670710923A
:1039A000630782E08093C30880E197E29093C208A6
:1039B0008093C1081F9108952F923F924F925F927A
:1039C0007F928F929F92AF92BF92CF92DF92EF92AF
:1039D000FF920F931F93CF93DF93B82EC62F142F10
:1039E0000E94B51287FD05C00E94B51284FF0DC06C
:1039F00007C00E94B51285FDF7CFAA24A39406C084
:103A00000E94B512AA24A39485FFA12C0E94B5128E
:103A100084FD05C00E94B51287FD07C00AC00E9440
:103A2000B51285FDF7CFD1E005C00E94B512D1E0F7
:103A300085FFD0E060916B0770916C0780916D07F6
:103A400090916E0725E030E040E050E00E94263281
:103A50001B012C01812F0E947413C82E812F0E94FC
:103A60009E13782ED12C082F10E06C2F70E08B2D38
:103A700090E0A11002C0DD2399F06C5F7F4F812C94
:103A8000912C35E0E32EF12C23E330E02328242889
:103A9000252819F445E357E015C042E157E012C06C
:103AA000AA24A39423282428252809F0A12C6C5F9C
:103AB0007F4F812C912C25E0E22EF12C23E330E086
:103AC0004FEE56E00E9444178091D9088823E9F10F
:103AD000CC5FDC0FCD2FD0E06E018FEFC81AD80A73
:103AE000B70CEB2CF12C20E0A601B7018AED98E091
:103AF0000E94031300E022E041E0B601C7010196F5
:103B00000E94D01924E041E0BE01C70102960E9444
:103B1000D019AE014D5F5F4FB7016D5F7F4F20E061
:103B20008AED98E0DF91CF911F910F91FF90EF9078
:103B3000DF90CF90BF90AF909F908F907F905F90DD
:103B40004F903F902F900C940313DF91CF911F91D2
:103B50000F91FF90EF90DF90CF90BF90AF909F902C
:103B60008F907F905F904F903F902F9008951F927D
:103B70000F920FB60F9211242F933F938F939F9321
:103B8000AF93BF938091CB019091CC01A091CD01D7
:103B9000B091CE013091F10823E0230F2D3720F4AE
:103BA0000196A11DB11D05C026E8230F0296A11D97
:103BB000B11D2093F1088093CB019093CC01A09389
:103BC000CD01B093CE018091CF019091D001A09111
:103BD000D101B091D2010196A11DB11D8093CF01F9
:103BE0009093D001A093D101B093D201BF91AF9136
:103BF0009F918F913F912F910F900FBE0F901F902B
:103C00001895CF93DF93CDB7DEB727970FB6F8940B
:103C1000DEBF0FBECDBF789484B5826084BD84B50D
:103C2000816084BD85B5826085BD85B5816085BDB7
:103C300080916E00816080936E001092810080916F
:103C400081008260809381008091810081608093F7
:103C5000810080918000816080938000809191003C
:103C600082608093910080919100816080939100A7
:103C7000809190008160809390008091C100846069
:103C80008093C1008091C10082608093C1008091C7
:103C9000C10081608093C1008091C30081608093E6
:103CA000C3008091C00082608093C0008091C200F8
:103CB00081608093C20080917A00846080937A0052
:103CC00080917A00826080937A0080917A0081608E
:103CD00080937A0080917A00806880937A001092B5
:103CE000D40110924B0110924A018091D70081605B
:103CF0008093D70080EA8093D80089B5806189BD20
:103D000089B5826089BD09B400FEFDCF61E070E035
:103D100080E090E00E94C1118091D8008F7C80618A
:103D20008093D8008091E000807F8093E0008091B4
:103D3000E1008E7E8093E1008DE08093E200559A51
:103D4000209A8FEF9FEF9093FE078093FD0729E65F
:103D500031E03C832B83EB81FC816491611134C0A1
:103D600042E050E067E471E081EF97E00E94530584
:103D700081EC80937C0085B1806F85B984B1877EAA
:103D800084B984B1876E84B95E9A5F988AB1806D78
:103D90008AB9769A6E9881B3806F81BB899880B317
:103DA0008D7080BB80E58CBD81E08DBD85E090E0AD
:103DB0000E94B0125F9A85E090E00E94B0125E9877
:103DC0005C98ECE5F1E016C081EF97E00E94880472
:103DD0002B813C812F5F3F4F3C832B83892B09F044
:103DE000BACFBECF0DB407FEFDCF319631E0E93634
:103DF000F30721F084918EBD0000F4CF5C9A81E836
:103E0000809364008091650081608093650080E00C
:103E10000E945F110E94B51287FF25C05C9885EA59
:103E20008EBD00000DB407FEFDCF8EB55C9A2E98B6
:103E30002F982D988091640080628093640081E0C7
:103E400083BF889513BEFCCF2D980E94B51284784D
:103E5000843871F00E94B5128471843131F188EC9C
:103E600090E00E94B0120E94B51282FDEDCF3AC0E0
:103E70000E94AE1288EC90E00E94B0122F9882E06F
:103E800090E00E94DE318F3F29F06FEF82E090E0FA
:103E90000E94E63184EF91E00E94B0122F9A0E94B6
:103EA000B51284788438D9F3D5CF0E94AE1288EC4D
:103EB00090E00E94B0122E9882E090E00E94DE31E5
:103EC000882329F060E082E090E00E94E63184EFF0
:103ED00091E00E94B0122E9A0E94B5128471843132
:103EE000D9F3BDCF0E94AE1282E090E00E94DE3195
:103EF00081110E94BD1281E090E00E94DE31847049
:103F0000B82E81E090E00E94DE3181FF87C0B110C1
:103F10002E98E0EF6E2E77247A9408E010E00E944D
:103F2000B51286FF05C02E9A2F9A0E94AE1276C057
:103F3000BB2031F044E06416710411F42E9A2F98DE
:103F400081E00E945F11930177FE04C0222733278E
:103F50002619370927703327C30177FC079673E0CA
:103F6000959587957A95E1F777FE05C00197D80179
:103F7000A21BB30B9D01AC015695542F44275795B6
:103F800047954B525E4F60E070E04801821A930AF9
:103F90008F3FBFEF9B074CF40196685A7F4F405804
:103FA0005F4F603B7105A1F720C07A01E4E9EE0E96
:103FB000F11C6A01A0E0B0E08F3FFFEF9F0711F412
:103FC0000C946030FD01E60FF71FE455FF4FE491BC
:103FD000F0E02F01022E01C0440C0A94EAF7F6012A
:103FE000A4884A28448A0C94603080E00E945F11C3
:103FF0008FE090E00E94B012FFEF6F1A7F0A29E174
:104000006216710409F08BCFBB2011F02F9A2D9806
:1040100080E991E00E94B0120E94AE1282E390E02B
:104020000E94B0120E94B5128111F8CF81E28093F4
:10403000E108809171008D7F809371001092500192
:1040400081E498E090934F0180934E0190934D014D
:1040500080934C0188EC90E0909342088093410853
:1040600090934408809343082CE231E03093460853
:1040700020934508909348088093470880E090E893
:1040800090934A08809349080E940E1281E00E9492
:104090005311E1E5F8E0119238E0EC35F307D9F778
:1040A0000E94C40E0E94FB118091E208462F481B1B
:1040B000842F9091E308992331F04093E408109203
:1040C000E3080C9456309091E108491758F48F5F3B
:1040D000891710F00C94563081E083BF889513BE89
:1040E0000C94563081E08093E3086093E20880915D
:1040F000DD089091DE0801969093DE088093DD083C
:1041000081E00E94531180910C01882309F489C039
:104110000E94B51282FF02C00C9483300E94B51237
:1041200083FF02C00C9483300E94C60F0E94711B53
:1041300081E090E09C838B83412C512C30E4632EF2
:1041400032E4732E40E8E42EF12CA301920160E0EA
:1041500070E080E892E40E9457320E94C9324B011D
:104160005C0100E022E341E08B819C810E94D01938
:1041700022E341E0B401C701AB81BC818A1B9B0BE8
:104180000E94D01923E333E343E35FE3C301B201A9
:104190000E94B6332B013C01EB81FC813296FC83FB
:1041A000EB837B9791F660916B0770916C07809120
:1041B0006D0790916E072EE130E040E050E00E94E4
:1041C0002632672B682B692B91F40E94CE31382F51
:1041D00068E20E94233428E1290F832F60E60E94C1
:1041E000233442E0622F80E1890F0E943A1B0E9433
:1041F000910A0E947714812C912CA12CC12CD12CD6
:1042000025E0E22EF12C00E410E020E430E046E26C
:1042100053E062E170E080E290E00E9444170C9469
:10422000403080915401882319F0815080935401CB
:104230000E94B51282FF53C00E94B51283FD4FC089
:104240000E94FB1100916407109165072091660799
:1042500030916707601771078207930708F43FC022
:1042600080916807882311F40C94993010926807A4
:10427000109253011092520110926A07109269072E
:104280001092620810926108E5EDF5E0158236960D
:1042900027E0E535F207D1F7E4E6F8E01682379635
:1042A00038E0E83BF307D1F7E1ECF7E081EF97E086
:1042B000148236968E179F07D9F70E94C40E0E946B
:1042C000FB11DC01CB0188539F4FAF4FBF4F809351
:1042D000640790936507A0936607B0936707809182
:1042E0006307882319F00E947714A5C00E94B512B5
:1042F00087FF05C08091D60881500E94B1130E94AB
:10430000B51284FF05C08091D6088F5F0E94B1135B
:104310000E94B51285FF2DC00E94FB110091640719
:1043200010916507209166073091670706171707F8
:1043300028073907F0F480915101882329F0109261
:1043400051013E983F9802C00E94BD128CE38093B9
:1043500054010E94FB11DC01CB0180579E4FAF4FEF
:10436000BF4F8093640790936507A0936607B0934F
:1043700067070E94B51286FF54C00E94FB1100918E
:10438000640710916507209166073091670706174B
:1043900017072807390708F044C04091D408453072
:1043A00008F03FC02091C0083091D5082317C8F10C
:1043B0008091C70890E0019650E0841795078CF132
:1043C000231B2093C00884E791E00E949B12E09198
:1043D000D608E53038F4F0E0E854F74F81898F5F74
:1043E000818B0DC0E53031F48091C8088F5F8093D8
:1043F000C80805C08091C7088F5F8093C7080E94D6
:10440000A60E0E94FB11DC01CB0180579E4FAF4FDF
:10441000BF4F8093640790936507A0936607B0939E
:1044200067070E94B51283FF06C08091D6088530C9
:1044300010F48093D30880916307882311F40C94BF
:10444000DE2D8091C7080E949E13082F6091BC0842
:104450007091BD088091BE089091BF080E94D03233
:10446000162F6091B8087091B9088091BA089091A0
:10447000BB080E94D03291EC692E97E0792EF301AF
:10448000C12CD12C70E05B01A00EB11C412F50E07B
:104490008A01095F1F4F84818823C9F0208130E0A1
:1044A000C90102968A159B0594F4818190E07C01F4
:1044B000A2E0EA0EF11CE016F1064CF42C5F3F4F2F
:1044C0002617370724F00496841795074CF4BFEF9E
:1044D000CB1ADB0A369628E0C216D104E1F670C08A
:1044E00086E08C9DF0018D9DF00D1124EF53F84F67
:1044F000138186E891E00E949B12111108C08091FF
:10450000C308833030F48F5F8093C30850C01330EA
:10451000E9F42091C1083091C20828573C4E3093ED
:10452000C2082093C1086091C70848EE53E0649F19
:10453000C001659F900D1124805F984D82179307ED
:10454000B0F59093C2088093C10831C0113031F4A6
:104550008091C0088F5F8093C00829C0143071F427
:1045600080916F079091700780589F4F90937007CC
:1045700080936F0780E00E94531119C0123021F41C
:1045800081E08093D90813C0153088F08CEF810F3B
:104590009091C508981748F0891309C0135014303A
:1045A00018F41093C50803C083E08093C50886E023
:1045B0008C9DF0018D9DF00D1124EF53F84F148266
:1045C00044E658E05F834E838A01D80116968C91A9
:1045D0001697882369F013968C9113978F3F41F4B7
:1045E00011966C9111978C910E94F21AF801168223
:1045F000095F1F4FF8E0083B1F0739F78091C70894
:104600000E949E13E82E6091BC087091BD088091B5
:10461000BE089091BF080E94D032F62E6091B80873
:104620007091B9088091BA089091BB080E94D0326D
:10463000E4E6F8E000E010E070E05B01AE0CB11CD5
:104640004F2D50E07A0127E0E20EF11C868188238D
:10465000C9F0208130E0C90102968A159B0594F4C7
:10466000818190E06C01A2E0CA0ED11CCE14DF045F
:104670004CF42C5F3F4F2617370724F0049684171D
:1046800095073CF40F5F1F4F37960C301105F1F67C
:104690002DC087E0809FF001819FF00D1124EC591F
:1046A000F74F83818A3F11F184819581892BF1F045
:1046B0008281843030F0843031F0853031F085E013
:1046C00005C081E003C08FE001C080E59091D9086A
:1046D000911180E00E94331C27E0209FC001219FA0
:1046E000900D11248C59974F0E94FD138091C7089B
:1046F0000E949E13082F6091BC087091BD088091A4
:10470000BE089091BF080E94D032162F6091B80861
:104710007091B9088091BA089091BB080E94D0327C
:10472000862F27E0402F612F0E948F0F8F3F09F4C3
:104730003FC0E82EF12CB6E08B9FF0011124EB5224
:10474000FA4F8481811134C08091C608811130C034
:104750008281882369F0853071F0833079F084306C
:1047600091F48091D308843061F0E5E0EA830BC0D6
:10477000F8E0FA8308C02FE02A8305C034E03A83CA
:1047800002C041E04A838A810E94331C86E08E9DEC
:1047900080018F9D100D11240B521A4F41E0D8015A
:1047A00011966C9111978C910E943A1BF801158219
:1047B00004E618E0B6E0BB2E83E0982ED8011696EA
:1047C0008C911697882309F4B7C028E048E0119629
:1047D0006C9111978C910E948F0F8F3F09F4ACC0A0
:1047E000F8012281253009F4A7C028F044815581C1
:1047F000452B09F4A1C0C82ED12CBC9CF001BD9C56
:10480000F00D1124EB52FA4FE480EE2009F494C02D
:10481000D80113968C918A3F08F08EC0F280A09147
:10482000D3080A2E000CBB0BA854B74F51963C91ED
:10483000F11006C0832F880F880F830F825E24C07B
:10484000B1E0FB1206C0832F880F880F880F8A5BA8
:104850001BC042E0F41206C08381692D0E942F34F0
:10486000330F0BC053E0F51204C0832F880F865F0F
:104870000BC084E0F81203C085E0830F05C095E00B
:10488000F91205C00C94A130233031F403C0233059
:1048900089F580E086958695882361F1A4E68A9F54
:1048A000900111244091690750916A07440F452FE8
:1048B000441F550B5195849FB001859F700D1124A5
:1048C000261B370BF801848195812817390728F4B6
:1048D000821B930B958384830DC0C8010E94FD1336
:1048E00080915201909153010196909353018093CE
:1048F000520101C0E12CBC9CF001BD9CF00D1124C3
:10490000EB52FA4F8081F2E0FF1202C0D8018C9185
:10491000BC9CF001BD9CF00D1124EB52FA4F40E01D
:1049200061810E943A1BEE2019F0B1E0FB1621F0E4
:10493000E2E0FE120C94B930095F1F4FF8E0083B2B
:104940001F0709F03BCF0E94C60F80916F07C090F0
:104950006B07D0906C07E0906D07F0906E0780FDBC
:1049600022C0C701B60123E030E040E050E00E94E1
:104970002632672B682B692BB1F4809161089091E6
:104980006208019660E973E00E943D3490936208EA
:10499000809361088091690790916A0701969093CE
:1049A0006A0780936907C701B60123E030E040E061
:1049B00050E00E942632672B682B692B21F0E4E639
:1049C000F8E020E017C0E1E5F8E08081882311F0ED
:1049D00081508083319628E0EC35F207B1F7EFCFB4
:1049E00084819581892B09F02F5F379638E0E83B69
:1049F000F30721F086818823C1F3F2CF85E090E0B0
:104A0000821B910944E1489F9001499F300D112478
:104A100088EC90E0821B930B2091690730916A0724
:104A2000F5E036952795FA95E1F7821B930B8A30CE
:104A3000910534F0893C91052CF088EC90E002C09F
:104A40008AE090E090935D0880935C080E94CE31EC
:104A500060915C0870915D080E9451346C01E12CFA
:104A6000F12C0E94FB1120915C0830915D08032E0F
:104A7000000C440B550B0E942632C616D706E806DA
:104A8000F90609F091C00E94CE3164E670E00E9400
:104A900051349C01482F99276BE070E00E943D340F
:104AA000FC01EF5AF74F60815BE0611109C050E1F2
:104AB0005083443138F5E4E6F8E060E070E00AC085
:104AC000515099F771C06F5F7F4F37966C30710509
:104AD00009F46AC046814111F6CF37E0369FA00144
:104AE000379F500D1124FA01EC59F74F41E04683EE
:104AF00040E840830496880F880F818332832370B7
:104B000023834EC0483228F5E4E6F8E020E030E0A8
:104B10005681511117C057E0529FF001539FF00D7D
:104B20001124EC59F74F21E0268320E820830496D6
:104B3000880F880F818366E06283842F0E9423346C
:104B400093832EC02F5F3F4F37962C30310501F7EE
:104B50002BC060916A0766956F5F613021F0673006
:104B600018F066E001C062E0E4E6F8E020E030E042
:104B7000568151111FC057E0529FF001539FF00D15
:104B80001124EC59F74F21E0268320E82083049676
:104B9000880F880F8183842F0E942334928313828D
:104BA00080E197E29583848345ED55E05C834B83F8
:104BB0002A0107C02F5F3F4F37962C303105C1F6D1
:104BC000F3CFD20115968C911597882309F4ABC1C8
:104BD000BC90B7FE02C00C94A83011968C91803422
:104BE00010F00C94A830F201828181111CC0248144
:104BF00061818B2D90E0222339F04091C9084D5FEF
:104C000070E000E021E086C0462F50E020E0BC01CB
:104C10008AED98E00E940313D20111964C911197EE
:104C200050E06C9162C0813009F043C080916B0705
:104C300090916C07A0916D07B0916E0783709927D2
:104C4000AA27BB2722242394892B8A2B8B2B09F09C
:104C5000212CE091D3080E2E000CFF0BE854F74FE7
:104C60001189812F0E948913082F812F0E947413AC
:104C7000C82ED12C10E0F201618170E06250710900
:104C8000812C912CA12CE3E0EE2EF12C23E330E0DB
:104C900043E056E08B2D90E00E944417D20111961C
:104CA0006C91119761509EEF92198C9140E0890FA1
:104CB00082C0823039F4F201618170E000E021E0CD
:104CC00040E226C08330D1F4418150E06B2D70E08A
:104CD00020E08AED98E00E940313F201848188238A
:104CE00009F46BC0418150E0608170E06F5F7F4FDD
:104CF00020E08AED98E00E9403135FC0843079F5CC
:104D00002381203154F4618170E000E021E044E02F
:104D10008B2D90E00E94D01950C02C31BCF0022E97
:104D2000000C330B8091CD0890E00D96880F991FF1
:104D3000880F991F281739072CF46181625020E0F1
:104D400045E009C0089628173907BCF5F2016181D2
:104D5000615020E043E08B2D0E94A41A2EC08530C4
:104D600061F580916B0790916C07A0916D07B091F0
:104D70006E0783709927AA27BB2711E0892B8A2BFE
:104D80008B2B09F010E0D20111966C9170E000E0DD
:104D900021E044E08B2D90E00E94D019F201948133
:104DA0008081992321F0109540E0618103C01C5F50
:104DB00041E06181810F0E94311480916F07F201FF
:104DC000B48080FF03C0BB2009F4ADC0C0906B0766
:104DD000D0906C07E0906D07F0906E07C701B601A8
:104DE00023E030E040E050E00E942632672B682B41
:104DF000692B21F4D2018C9181508C93F201828134
:104E0000882309F46EC0813031F48091CA088C5F28
:104E10008983312C7AC0823009F467C08330C1F4B1
:104E20001381112349F1C701B601212F012E000C76
:104E3000330B440B550B0E942632672B682B692BD2
:104E4000D9F410FD56C033243A94E4E0E9835DC000
:104E50008430B1F423812C5F2383022E000C330BAA
:104E60008091CD0890E00F96880F991F880F991FA9
:104E7000821793070CF41582312CB4E0B98345C036
:104E8000853009F042C0F20103810023B9F1002E00
:104E9000000C110B80E590E0B8010E945134161609
:104EA00017062CF080EB9FEFB8010E9451349B0154
:104EB000770F440B550BC701B6010E942632672BB2
:104EC000682B692BF9F4B80117FF04C06627772710
:104ED000601B710BC8010E945134362EF2E0F98339
:104EE00014C0312C25E0298310C0312C3AE03983DD
:104EF0000CC03324339444E0498307C0312C52E082
:104F0000598303C0312C82E08983B11003C0998199
:104F100091959983D2018C91B9818B0FF201808395
:104F20008181830D8183F6E04F0E511C25E54216E9
:104F300027E0520609F045CE96E0B92E28E7422E2A
:104F4000512CD30114968C91882309F443C1C0904D
:104F50006B07D0906C07E0906D07F0906E07C7016B
:104F6000B60123E030E040E050E00E942632672B9B
:104F7000682B692B21F4F301808181508083C70164
:104F8000B6012AE030E040E050E00E942632D30132
:104F900013962C911397672B682B692BE9F41296C3
:104FA0008C9190E00196B2010E945134F30182830A
:104FB000223038F4837081F4958181E089278583DC
:104FC0000BC0233049F46B2D0E942334911104C08F
:104FD000958181E089278583D301EC91E7FF02C0A9
:104FE0000C94AD3011968C91803410F00C94AD304F
:104FF00021111BC0D30112968C918370B7E08B9F57
:1050000060011124D30111966C91119770E0812CED
:10501000912C1596AC9086E0E82EF12C07E010E07C
:105020002CE130E046EF52E01CC02130F9F4D3010E
:1050300012968C918370B7E08B9F60011124D3018D
:1050400011966C91119770E0812C912C1596AC9073
:1050500007E0E02EF12C07E010E02CE130E04EE319
:1050600052E08E2F90E00E944417B4C02330D9F54F
:10507000D30112968C916B2D0E942334B8E09B9F34
:1050800060011124D30111966C91119770E0812C6D
:10509000912C1596AC9014E0E12EF12C08E010E074
:1050A00020E330E040ED51E08E2F90E00E94441765
:1050B000F30182816B2D0E942334A58081E0A82614
:1050C000A394A394F8E09F9F60011124D30111964B
:1050D0006C91119770E06C5F7F4F8C9120E330E012
:1050E00040ED51E0BFCF2430D9F4D30112968C911A
:1050F0006B2D0E942334B7E09B9F60011124D301E4
:1051000011966C9170E0812C912CA12CB7E0EB2EC4
:10511000F12C07E010E02AE230E046EA51E0A1CFAE
:10512000223091F5D30112968C918370B4E08B9F5D
:1051300060011124D30111966C9170E0812C912CA7
:10514000A12CA7E0EA2EF12C04E010E020E130E0F1
:1051500048E951E08E2F90E00E944417F3018281CC
:105160008370F4E08F9F60011124D30111966C913C
:10517000119770E08C9190E0AA24A39420E130E094
:1051800048E951E003966FCF253020F1B3E0CB2200
:10519000DD2463E0CC0CDD1C6A95E1F7D3011196A8
:1051A0006C9170E0812C912CA12CF6E0EF2EF12C6B
:1051B00008E010E020E230E04EE053E08E2F90E077
:1051C0000E944417F3014381445020E061818081B3
:1051D0000E942517F6E06F0E711C21EF37E02615AF
:1051E000370509F0AECE56E0B52E77247A94AE811D
:1051F000BF8116968C91882309F439C480916F077A
:10520000909170078C010170112780FD89C1C090B9
:105210006B07D0906C07E0906D07F0906E07C701A8
:10522000B60123E030E040E050E00E942632672BD8
:10523000682B692B29F4EE81FF8180818150808366
:10524000AE81BF8112969C90B7E09B1609F468C1AD
:10525000EE81FF81A380F6E09F121EC02A2D30E070
:105260002E5F3F4F032E000C440B550BC701B601B8
:105270000E942632672B682B692B09F051C1AE8141
:10528000BF8114968D919C911597892B09F448C183
:105290008C9181508C933DC1B5E0C701B6019B1242
:1052A00014C025E030E040E050E00E942632672B39
:1052B000682B692B09F034C18A2D90E00196877024
:1052C0009927EE81FF81838324C12AE030E040E00A
:1052D00050E00E942632AE81BF8114968D919C9140
:1052E0001597892B69F461111BC181E08A0D8E3FEE
:1052F00018F413968C9314C1EE81FF81738209C157
:10530000F2E09F1246C0A394AE81BF811396AC9287
:10531000BBE3BA15A8F18A2D63E00E9423349111F2
:105320002FC00E94CE31E5EDF5E02581211122C08C
:10533000EE81FF8121813081B09EF001B19EF00DA0
:105340001124EB52FA4F41E0458330832C5F2183D7
:1053500023E0228324E630E02A1931093595279588
:105360003595279560E170E00E945134280F238322
:10537000148206C00F5F1F4F369600341105A9F640
:10538000AE81BF8113968C911397873709F0C1C006
:1053900042C0B4E09B1242C061110FC081E08A0D8F
:1053A000EE81FF8183838A3078F463E00E942334A6
:1053B0009111AFC0808181508083AE81BF811396EF
:1053C0008C918A3008F4A5C0EE81FF8191819B5FAA
:1053D00020812450E5EDF5E03581311111C0B09EFA
:1053E000A001B19E500D1124FA01EB52FA4F31E0A9
:1053F00035832083918394E092831382148206C0C4
:105400000F5F1F4F36960034110531F7833109F0D5
:1054100080C0AE81BF8113961C927BC0611180C099
:105420008A2D90E0019683709927EE81FF81838316
:10543000833021F48081815080836BC0823009F0F9
:105440006FC0F1E09F1223C0AE81BF8111962C91F5
:1054500011972C5F3C913F5FE5EDF5E0858181116F
:105460000FC0B09EC001B19E900D1124FC01EB5203
:10547000FA4F81E08583308321831282138240C0FA
:105480000F5F1F4F36960034110541F749C0911048
:1054900047C0E5EDF5E08581811134C0C090BC08BE
:1054A000D090BD08E090BE08F090BF08EE81FF816B
:1054B00061812081B09EC001B19E900D11248C01AC
:1054C0000B521A4F81E0D80115968C9315972F5FD8
:1054D0002C9385E0860F11968C93119785E0129698
:1054E0008C9370E080E090E00E9401339B01AC015E
:1054F000C701B6010E9457320E94C932F801638386
:10550000148207C00F5F1F4F36960034110519F63D
:1055100007C0AE81BF8116968C91882309F4A7C27B
:10552000AE81BF81EC91EB3808F01CC611968C91CE
:10553000803408F017C6AE81BF8113968C91139703
:105540008F3F09F494C212969C911297973001F5FF
:1055500014962D913C911597232B11F466E023C0EE
:10556000B6E08B9F60011124AE81BF8111966C91D2
:1055700070E0812C912CA12C88E0E82EF12C06E023
:1055800010E028E130E041E252E08E2F90E003C1CC
:10559000963039F5AE81BF8114962D913C911597C7
:1055A000232B29F465E0CD010E94521860C2B8E0B7
:1055B0008B9F60011124AE81BF8111966C9170E0C8
:1055C0006E5F7F4F812C912CAA24A39405E0E02EDE
:1055D000F12C08E010E020E330E043E052E08E2FB1
:1055E000A4C0953009F04EC0AE81BF8114968D9154
:1055F0009C911597892B09F43AC211964C9150E071
:105600004C5F5F4F6E2F70E06F5F7F4F20E08AED41
:1056100098E00E940313EE81FF81418150E04D5FCD
:105620005F4F608170E06D5F7F4F20E08AED98E012
:105630000E940313AE81BF8111964C91119750E0E7
:105640004C5F5F4F6C9170E06B5F7F4F20E08AEDA5
:1056500098E00E940313EE81FF81238160814181E4
:10566000822F90E050E04C5F5F4F70E0253028F4CF
:105670006F5F7F4F680F791F9EC1675F7F4F681B09
:10568000790B99C1923009F058C0AE81BF81149650
:105690002D913C91159711964C91232BC1F4642FB9
:1056A00070E06D5F7F4F812C912CA12CB8E0CB2E48
:1056B000D12C15E0E12EF12C05E010E028E130E0DE
:1056C00044EF51E08E2F90E00E94441736C086349C
:1056D00030F080558A3008F04AC582E00FC08C3324
:1056E00060F463E00E942334911107C064E0640F0A
:1056F00040E08FEF8E0F0E94311480E0B8E08B9F66
:1057000060011124EE81FF81618170E06D5F7F4F48
:105710008081812C912CA12CA5E0EA2EF12C08E0AF
:1057200010E028E130E044EF51E090E00E9444179F
:105730008E819F810E94E4139AC1AE81BF8113962E
:105740002C91139786E0820FEC9111966C91119732
:10575000843020F512968C91823011F082E001C0E5
:1057600086E030E02A5F3109B29E6001B39ED00C22
:10577000112470E06C5F7F4F90E0812C912CA12C64
:10578000F4E0EF2EF12C06E010E028E130E048EEE6
:1057900051E08E0F911D0E94441769C170E06D5F4A
:1057A0007F4F8E2F90E000E024E042E003960E94BD
:1057B000D019EE81FF81418150E04C5F5F4F6081E5
:1057C00070E06D5F7F4F21E08AED98E00E94031347
:1057D000AE81BF8113968C91139783706C91119653
:1057E0004C9150E0495F5F4F70E0823078F46D5F1C
:1057F0007F4F20E08AED98E00E940313EE81FF8145
:10580000418150E0495F5F4F608112C08230A1F456
:105810006E5F7F4F20E08AED98E00E940313AE8117
:10582000BF8111964C91119750E0495F5F4F6C9189
:1058300070E06C5F7F4F11C06D5F7F4F20E08AED9D
:1058400098E00E940313EE81FF81418150E0495F9F
:105850005F4F608170E06B5F7F4F20E08AED98E0E2
:105860000E9403138E819F810E94E413AE81BF8149
:1058700012968C911297813069F511964C9111977F
:1058800050E04B5F5F4F6C9170E06F5F7F4F20E0A7
:105890008AED98E00E940313EE81FF81418150E080
:1058A0004B5F5F4F608170E06E5F7F4F20E08AED5D
:1058B00098E00E940313AE81BF8113968C911397D9
:1058C000823009F0D4C011966C9111976B5F40E063
:1058D0008C9140C0811141C0EE81FF81418150E037
:1058E0004C5F5F4F608170E06F5F7F4F20E08AED1B
:1058F00098E00E940313AE81BF8111964C911197DD
:1059000050E04C5F5F4F6C9170E06E5F7F4F20E026
:105910008AED98E00E940313EE81FF81418150E0FF
:105920004C5F5F4F608170E06B5F7F4F20E08AEDDE
:1059300098E00E940313AE81BF8113968C91139758
:10594000823009F094C011966C9111976C5F8C9124
:1059500041E08A5F0E9431148AC0833071F5EE8184
:10596000FF81618170E06D5F7F4F808190E000E09A
:1059700024E041E001960E94D019AE81BF811196CA
:105980004C91119750E04B5F5F4F6C9170E06E5FF0
:105990007F4F20E08AED98E00E940313EE81FF81A3
:1059A0008381811164C0418150E04B5F5F4F608112
:1059B00070E06B5F7F4F20E056C0843009F057C025
:1059C000AE81BF8113968C9113976C9111964C9177
:1059D00050E0883018F44A5F5F4F02C04B5F5F4F62
:1059E00070E06F5F7F4F20E08AED98E00E94031324
:1059F000EE81FF81418150E04B5F5F4F608170E03D
:105A00006E5F7F4F20E08AED98E00E940313AE8125
:105A1000BF8111966C91119770E06D5F7F4F8C91F3
:105A200090E000E024E043E005960E94D019EE816A
:105A3000FF81418150E04D5F5F4F608170E06B5F9F
:105A40007F4F21E08AED98E00E940313AE81BF8171
:105A500011964C91119750E04A5F5F4F6C9170E046
:105A60006B5F7F4F21E08AED98E00E940313EE8187
:105A7000FF813796FF83EE83E85BF84009F0B7CBF0
:105A80000E94711BE091D308E230B1F00E2E000CA1
:105A9000FF0BE854F74F8189880F865F9091C40807
:105AA000282F30E0290F311D2F3F310514F08FEFE3
:105AB00001C0890F8093C4080E94910A40916F072A
:105AC0005091700741155105A9F04150510950936B
:105AD000700740936F074130510521F480E00E9428
